{
  "_format": "hh-sol-artifact-1",
  "contractName": "IDXExchange",
  "sourceName": "contracts/IDXExchange.sol",
  "abi": [
    {
      "inputs": [],
      "stateMutability": "nonpayable",
      "type": "constructor"
    },
    {
      "anonymous": false,
      "inputs": [
        {
          "indexed": true,
          "internalType": "address",
          "name": "owner",
          "type": "address"
        },
        {
          "indexed": true,
          "internalType": "address",
          "name": "spender",
          "type": "address"
        },
        {
          "indexed": false,
          "internalType": "uint256",
          "name": "value",
          "type": "uint256"
        }
      ],
      "name": "Approval",
      "type": "event"
    },
    {
      "anonymous": false,
      "inputs": [
        {
          "indexed": true,
          "internalType": "address",
          "name": "previousOwner",
          "type": "address"
        },
        {
          "indexed": true,
          "internalType": "address",
          "name": "newOwner",
          "type": "address"
        }
      ],
      "name": "OwnershipTransferred",
      "type": "event"
    },
    {
      "anonymous": false,
      "inputs": [
        {
          "indexed": true,
          "internalType": "address",
          "name": "from",
          "type": "address"
        },
        {
          "indexed": true,
          "internalType": "address",
          "name": "to",
          "type": "address"
        },
        {
          "indexed": false,
          "internalType": "uint256",
          "name": "value",
          "type": "uint256"
        }
      ],
      "name": "Transfer",
      "type": "event"
    },
    {
      "anonymous": false,
      "inputs": [
        {
          "indexed": true,
          "internalType": "address",
          "name": "owner",
          "type": "address"
        },
        {
          "indexed": false,
          "internalType": "uint256",
          "name": "amount",
          "type": "uint256"
        },
        {
          "indexed": false,
          "internalType": "string",
          "name": "message",
          "type": "string"
        },
        {
          "indexed": true,
          "internalType": "uint256",
          "name": "timestamp",
          "type": "uint256"
        }
      ],
      "name": "additionalTokensMinted",
      "type": "event"
    },
    {
      "anonymous": false,
      "inputs": [
        {
          "indexed": true,
          "internalType": "address",
          "name": "to",
          "type": "address"
        },
        {
          "indexed": true,
          "internalType": "address",
          "name": "from",
          "type": "address"
        },
        {
          "indexed": false,
          "internalType": "uint256",
          "name": "tokens",
          "type": "uint256"
        },
        {
          "indexed": false,
          "internalType": "uint256",
          "name": "amount",
          "type": "uint256"
        },
        {
          "indexed": true,
          "internalType": "uint256",
          "name": "timestamp",
          "type": "uint256"
        },
        {
          "indexed": false,
          "internalType": "string",
          "name": "status",
          "type": "string"
        }
      ],
      "name": "tokenPurchase",
      "type": "event"
    },
    {
      "anonymous": false,
      "inputs": [
        {
          "indexed": true,
          "internalType": "address",
          "name": "owner",
          "type": "address"
        },
        {
          "indexed": false,
          "internalType": "uint256",
          "name": "amount",
          "type": "uint256"
        },
        {
          "indexed": false,
          "internalType": "string",
          "name": "message",
          "type": "string"
        },
        {
          "indexed": true,
          "internalType": "uint256",
          "name": "timestamp",
          "type": "uint256"
        }
      ],
      "name": "tokensBurned",
      "type": "event"
    },
    {
      "anonymous": false,
      "inputs": [
        {
          "indexed": true,
          "internalType": "address",
          "name": "owner",
          "type": "address"
        },
        {
          "indexed": false,
          "internalType": "uint256",
          "name": "amount",
          "type": "uint256"
        },
        {
          "indexed": false,
          "internalType": "string",
          "name": "message",
          "type": "string"
        },
        {
          "indexed": true,
          "internalType": "uint256",
          "name": "timestamp",
          "type": "uint256"
        }
      ],
      "name": "tokensMinted",
      "type": "event"
    },
    {
      "inputs": [
        {
          "internalType": "address",
          "name": "owner",
          "type": "address"
        },
        {
          "internalType": "address",
          "name": "spender",
          "type": "address"
        }
      ],
      "name": "allowance",
      "outputs": [
        {
          "internalType": "uint256",
          "name": "",
          "type": "uint256"
        }
      ],
      "stateMutability": "view",
      "type": "function"
    },
    {
      "inputs": [
        {
          "internalType": "address",
          "name": "spender",
          "type": "address"
        },
        {
          "internalType": "uint256",
          "name": "amount",
          "type": "uint256"
        }
      ],
      "name": "approve",
      "outputs": [
        {
          "internalType": "bool",
          "name": "",
          "type": "bool"
        }
      ],
      "stateMutability": "nonpayable",
      "type": "function"
    },
    {
      "inputs": [
        {
          "internalType": "address",
          "name": "account",
          "type": "address"
        }
      ],
      "name": "balanceOf",
      "outputs": [
        {
          "internalType": "uint256",
          "name": "",
          "type": "uint256"
        }
      ],
      "stateMutability": "view",
      "type": "function"
    },
    {
      "inputs": [
        {
          "internalType": "uint256",
          "name": "amount",
          "type": "uint256"
        }
      ],
      "name": "burn",
      "outputs": [],
      "stateMutability": "nonpayable",
      "type": "function"
    },
    {
      "inputs": [
        {
          "internalType": "address",
          "name": "account",
          "type": "address"
        },
        {
          "internalType": "uint256",
          "name": "amount",
          "type": "uint256"
        }
      ],
      "name": "burnFrom",
      "outputs": [],
      "stateMutability": "nonpayable",
      "type": "function"
    },
    {
      "inputs": [],
      "name": "buyToken",
      "outputs": [],
      "stateMutability": "payable",
      "type": "function"
    },
    {
      "inputs": [
        {
          "internalType": "uint256",
          "name": "_amountInWei",
          "type": "uint256"
        }
      ],
      "name": "convertToTokens",
      "outputs": [
        {
          "internalType": "uint256",
          "name": "",
          "type": "uint256"
        }
      ],
      "stateMutability": "view",
      "type": "function"
    },
    {
      "inputs": [],
      "name": "decimals",
      "outputs": [
        {
          "internalType": "uint8",
          "name": "",
          "type": "uint8"
        }
      ],
      "stateMutability": "view",
      "type": "function"
    },
    {
      "inputs": [
        {
          "internalType": "address",
          "name": "spender",
          "type": "address"
        },
        {
          "internalType": "uint256",
          "name": "subtractedValue",
          "type": "uint256"
        }
      ],
      "name": "decreaseAllowance",
      "outputs": [
        {
          "internalType": "bool",
          "name": "",
          "type": "bool"
        }
      ],
      "stateMutability": "nonpayable",
      "type": "function"
    },
    {
      "inputs": [
        {
          "internalType": "address",
          "name": "spender",
          "type": "address"
        },
        {
          "internalType": "uint256",
          "name": "addedValue",
          "type": "uint256"
        }
      ],
      "name": "increaseAllowance",
      "outputs": [
        {
          "internalType": "bool",
          "name": "",
          "type": "bool"
        }
      ],
      "stateMutability": "nonpayable",
      "type": "function"
    },
    {
      "inputs": [
        {
          "internalType": "address",
          "name": "to",
          "type": "address"
        },
        {
          "internalType": "uint256",
          "name": "amount",
          "type": "uint256"
        }
      ],
      "name": "mint",
      "outputs": [],
      "stateMutability": "nonpayable",
      "type": "function"
    },
    {
      "inputs": [],
      "name": "name",
      "outputs": [
        {
          "internalType": "string",
          "name": "",
          "type": "string"
        }
      ],
      "stateMutability": "view",
      "type": "function"
    },
    {
      "inputs": [],
      "name": "owner",
      "outputs": [
        {
          "internalType": "address",
          "name": "",
          "type": "address"
        }
      ],
      "stateMutability": "view",
      "type": "function"
    },
    {
      "inputs": [],
      "name": "renounceOwnership",
      "outputs": [],
      "stateMutability": "nonpayable",
      "type": "function"
    },
    {
      "inputs": [],
      "name": "symbol",
      "outputs": [
        {
          "internalType": "string",
          "name": "",
          "type": "string"
        }
      ],
      "stateMutability": "view",
      "type": "function"
    },
    {
      "inputs": [],
      "name": "totalSupply",
      "outputs": [
        {
          "internalType": "uint256",
          "name": "",
          "type": "uint256"
        }
      ],
      "stateMutability": "view",
      "type": "function"
    },
    {
      "inputs": [],
      "name": "totalVolume",
      "outputs": [
        {
          "internalType": "uint256",
          "name": "",
          "type": "uint256"
        }
      ],
      "stateMutability": "view",
      "type": "function"
    },
    {
      "inputs": [
        {
          "internalType": "address",
          "name": "to",
          "type": "address"
        },
        {
          "internalType": "uint256",
          "name": "amount",
          "type": "uint256"
        }
      ],
      "name": "transfer",
      "outputs": [
        {
          "internalType": "bool",
          "name": "",
          "type": "bool"
        }
      ],
      "stateMutability": "nonpayable",
      "type": "function"
    },
    {
      "inputs": [
        {
          "internalType": "address",
          "name": "from",
          "type": "address"
        },
        {
          "internalType": "address",
          "name": "to",
          "type": "address"
        },
        {
          "internalType": "uint256",
          "name": "amount",
          "type": "uint256"
        }
      ],
      "name": "transferFrom",
      "outputs": [
        {
          "internalType": "bool",
          "name": "",
          "type": "bool"
        }
      ],
      "stateMutability": "nonpayable",
      "type": "function"
    },
    {
      "inputs": [
        {
          "internalType": "address",
          "name": "newOwner",
          "type": "address"
        }
      ],
      "name": "transferOwnership",
      "outputs": [],
      "stateMutability": "nonpayable",
      "type": "function"
    }
  ],
  "bytecode": "0x60806040526402540be4006006553480156200001a57600080fd5b506040518060400160405280600881526020017f494458546f6b656e0000000000000000000000000000000000000000000000008152506040518060400160405280600381526020017f696478000000000000000000000000000000000000000000000000000000000081525081600390805190602001906200009f929190620003f8565b508060049080519060200190620000b8929190620003f8565b505050620000db620000cf6200019e60201b60201c565b620001a660201b60201c565b6200011a30620000f06200026c60201b60201c565b600a620000fe919062000641565b620f42406200010e91906200077e565b6200027560201b60201c565b423073ffffffffffffffffffffffffffffffffffffffff167fca971fb03421e1e59275bf0c0d91f2a0b514e74787a9a8ff669aeccc1b9bf83a620001636200026c60201b60201c565b600a62000171919062000641565b620f42406200018191906200077e565b60405162000190919062000546565b60405180910390a3620008e9565b600033905090565b6000600560009054906101000a900473ffffffffffffffffffffffffffffffffffffffff16905081600560006101000a81548173ffffffffffffffffffffffffffffffffffffffff021916908373ffffffffffffffffffffffffffffffffffffffff1602179055508173ffffffffffffffffffffffffffffffffffffffff168173ffffffffffffffffffffffffffffffffffffffff167f8be0079c531659141344cd1fd0a4f28419497f9722a3daafe3b4186f6b6457e060405160405180910390a35050565b60006012905090565b600073ffffffffffffffffffffffffffffffffffffffff168273ffffffffffffffffffffffffffffffffffffffff161415620002e8576040517f08c379a0000000000000000000000000000000000000000000000000000000008152600401620002df9062000507565b60405180910390fd5b620002fc60008383620003ee60201b60201c565b806002600082825462000310919062000589565b92505081905550806000808473ffffffffffffffffffffffffffffffffffffffff1673ffffffffffffffffffffffffffffffffffffffff168152602001908152602001600020600082825462000367919062000589565b925050819055508173ffffffffffffffffffffffffffffffffffffffff16600073ffffffffffffffffffffffffffffffffffffffff167fddf252ad1be2c89b69c2b068fc378daa952ba7f163c4a11628f55a4df523b3ef83604051620003ce919062000529565b60405180910390a3620003ea60008383620003f360201b60201c565b5050565b505050565b505050565b8280546200040690620007f6565b90600052602060002090601f0160209004810192826200042a576000855562000476565b82601f106200044557805160ff191683800117855562000476565b8280016001018555821562000476579182015b828111156200047557825182559160200191906001019062000458565b5b50905062000485919062000489565b5090565b5b80821115620004a45760008160009055506001016200048a565b5090565b6000620004b7601f8362000578565b9150620004c48262000897565b602082019050919050565b6000620004de601f8362000578565b9150620004eb82620008c0565b602082019050919050565b6200050181620007df565b82525050565b600060208201905081810360008301526200052281620004cf565b9050919050565b6000602082019050620005406000830184620004f6565b92915050565b60006040820190506200055d6000830184620004f6565b81810360208301526200057081620004a8565b905092915050565b600082825260208201905092915050565b60006200059682620007df565b9150620005a383620007df565b9250827fffffffffffffffffffffffffffffffffffffffffffffffffffffffffffffffff03821115620005db57620005da6200082c565b5b828201905092915050565b6000808291508390505b6001851115620006385780860481111562000610576200060f6200082c565b5b6001851615620006205780820291505b808102905062000630856200088a565b9450620005f0565b94509492505050565b60006200064e82620007df565b91506200065b83620007e9565b92506200068a7fffffffffffffffffffffffffffffffffffffffffffffffffffffffffffffffff848462000692565b905092915050565b600082620006a4576001905062000777565b81620006b4576000905062000777565b8160018114620006cd5760028114620006d8576200070e565b600191505062000777565b60ff841115620006ed57620006ec6200082c565b5b8360020a9150848211156200070757620007066200082c565b5b5062000777565b5060208310610133831016604e8410600b8410161715620007485782820a9050838111156200074257620007416200082c565b5b62000777565b620007578484846001620005e6565b925090508184048111156200077157620007706200082c565b5b81810290505b9392505050565b60006200078b82620007df565b91506200079883620007df565b9250817fffffffffffffffffffffffffffffffffffffffffffffffffffffffffffffffff0483118215151615620007d457620007d36200082c565b5b828202905092915050565b6000819050919050565b600060ff82169050919050565b600060028204905060018216806200080f57607f821691505b602082108114156200082657620008256200085b565b5b50919050565b7f4e487b7100000000000000000000000000000000000000000000000000000000600052601160045260246000fd5b7f4e487b7100000000000000000000000000000000000000000000000000000000600052602260045260246000fd5b60008160011c9050919050565b7f496e697469616c20737570706c79206f6620746f6b656e73206d696e74656400600082015250565b7f45524332303a206d696e7420746f20746865207a65726f206164647265737300600082015250565b61262280620008f96000396000f3fe60806040526004361061011f5760003560e01c8063715018a6116100a0578063a457c2d711610064578063a457c2d7146103e9578063a482171914610426578063a9059cbb14610430578063dd62ed3e1461046d578063f2fde38b146104aa5761011f565b8063715018a61461031657806379cc67901461032d57806385906256146103565780638da5cb5b1461039357806395d89b41146103be5761011f565b806339509351116100e7578063395093511461021f57806340c10f191461025c57806342966c68146102855780635f81a57c146102ae57806370a08231146102d95761011f565b806306fdde0314610124578063095ea7b31461014f57806318160ddd1461018c57806323b872dd146101b7578063313ce567146101f4575b600080fd5b34801561013057600080fd5b506101396104d3565b6040516101469190611ad2565b60405180910390f35b34801561015b57600080fd5b506101766004803603810190610171919061176f565b610565565b6040516101839190611ab7565b60405180910390f35b34801561019857600080fd5b506101a1610588565b6040516101ae9190611cb4565b60405180910390f35b3480156101c357600080fd5b506101de60048036038101906101d99190611720565b610592565b6040516101eb9190611ab7565b60405180910390f35b34801561020057600080fd5b506102096105c1565b6040516102169190611d67565b60405180910390f35b34801561022b57600080fd5b506102466004803603810190610241919061176f565b6105ca565b6040516102539190611ab7565b60405180910390f35b34801561026857600080fd5b50610283600480360381019061027e919061176f565b610674565b005b34801561029157600080fd5b506102ac60048036038101906102a791906117ab565b61074d565b005b3480156102ba57600080fd5b506102c3610825565b6040516102d09190611cb4565b60405180910390f35b3480156102e557600080fd5b5061030060048036038101906102fb91906116bb565b61082d565b60405161030d9190611cb4565b60405180910390f35b34801561032257600080fd5b5061032b610875565b005b34801561033957600080fd5b50610354600480360381019061034f919061176f565b6108fd565b005b34801561036257600080fd5b5061037d600480360381019061037891906117ab565b61091d565b60405161038a9190611cb4565b60405180910390f35b34801561039f57600080fd5b506103a861099a565b6040516103b59190611a9c565b60405180910390f35b3480156103ca57600080fd5b506103d36109c4565b6040516103e09190611ad2565b60405180910390f35b3480156103f557600080fd5b50610410600480360381019061040b919061176f565b610a56565b60405161041d9190611ab7565b60405180910390f35b61042e610b40565b005b34801561043c57600080fd5b506104576004803603810190610452919061176f565b610c08565b6040516104649190611ab7565b60405180910390f35b34801561047957600080fd5b50610494600480360381019061048f91906116e4565b610c2b565b6040516104a19190611cb4565b60405180910390f35b3480156104b657600080fd5b506104d160048036038101906104cc91906116bb565b610cb2565b005b6060600380546104e2906120ac565b80601f016020809104026020016040519081016040528092919081815260200182805461050e906120ac565b801561055b5780601f106105305761010080835404028352916020019161055b565b820191906000526020600020905b81548152906001019060200180831161053e57829003601f168201915b5050505050905090565b600080610570610daa565b905061057d818585610db2565b600191505092915050565b6000600254905090565b60008061059d610daa565b90506105aa858285610f7d565b6105b5858585611009565b60019150509392505050565b60006012905090565b6000806105d5610daa565b9050610669818585600160008673ffffffffffffffffffffffffffffffffffffffff1673ffffffffffffffffffffffffffffffffffffffff16815260200190815260200160002060008973ffffffffffffffffffffffffffffffffffffffff1673ffffffffffffffffffffffffffffffffffffffff168152602001908152602001600020546106649190611d9e565b610db2565b600191505092915050565b61067c610daa565b73ffffffffffffffffffffffffffffffffffffffff1661069a61099a565b73ffffffffffffffffffffffffffffffffffffffff16146106f0576040517f08c379a00000000000000000000000000000000000000000000000000000000081526004016106e790611bf4565b60405180910390fd5b6106fa828261128a565b423373ffffffffffffffffffffffffffffffffffffffff167f62bb75575727edcbc2c38496a2fc3f1f32fab0b7d3428f637ed0d87f0eab1b4f836040516107419190611ccf565b60405180910390a35050565b610755610daa565b73ffffffffffffffffffffffffffffffffffffffff1661077361099a565b73ffffffffffffffffffffffffffffffffffffffff16146107c9576040517f08c379a00000000000000000000000000000000000000000000000000000000081526004016107c090611bf4565b60405180910390fd5b6107d333826113ea565b423373ffffffffffffffffffffffffffffffffffffffff167f99faf7cd982236dee83ac92db016a62639f3d3017c3184e118c8273f8e955f718360405161081a9190611cfd565b60405180910390a350565b600047905090565b60008060008373ffffffffffffffffffffffffffffffffffffffff1673ffffffffffffffffffffffffffffffffffffffff168152602001908152602001600020549050919050565b61087d610daa565b73ffffffffffffffffffffffffffffffffffffffff1661089b61099a565b73ffffffffffffffffffffffffffffffffffffffff16146108f1576040517f08c379a00000000000000000000000000000000000000000000000000000000081526004016108e890611bf4565b60405180910390fd5b6108fb60006115c1565b565b61090f82610909610daa565b83610f7d565b61091982826113ea565b5050565b6000808211610961576040517f08c379a000000000000000000000000000000000000000000000000000000000815260040161095890611b74565b60405180910390fd5b6000600654836109719190611df4565b905061097b6105c1565b600a6109879190611e78565b816109929190611f96565b915050919050565b6000600560009054906101000a900473ffffffffffffffffffffffffffffffffffffffff16905090565b6060600480546109d3906120ac565b80601f01602080910402602001604051908101604052809291908181526020018280546109ff906120ac565b8015610a4c5780601f10610a2157610100808354040283529160200191610a4c565b820191906000526020600020905b815481529060010190602001808311610a2f57829003601f168201915b5050505050905090565b600080610a61610daa565b90506000600160008373ffffffffffffffffffffffffffffffffffffffff1673ffffffffffffffffffffffffffffffffffffffff16815260200190815260200160002060008673ffffffffffffffffffffffffffffffffffffffff1673ffffffffffffffffffffffffffffffffffffffff16815260200190815260200160002054905083811015610b27576040517f08c379a0000000000000000000000000000000000000000000000000000000008152600401610b1e90611c74565b60405180910390fd5b610b348286868403610db2565b60019250505092915050565b600654341015610b85576040517f08c379a0000000000000000000000000000000000000000000000000000000008152600401610b7c90611bd4565b60405180910390fd5b6000610b903461091d565b9050610b9d303383611009565b423073ffffffffffffffffffffffffffffffffffffffff163373ffffffffffffffffffffffffffffffffffffffff167f4410952916f4a0cec96b692df59f2e9322be2a26a8eb085ee3c4eed37fdb99628434604051610bfd929190611d2b565b60405180910390a450565b600080610c13610daa565b9050610c20818585611009565b600191505092915050565b6000600160008473ffffffffffffffffffffffffffffffffffffffff1673ffffffffffffffffffffffffffffffffffffffff16815260200190815260200160002060008373ffffffffffffffffffffffffffffffffffffffff1673ffffffffffffffffffffffffffffffffffffffff16815260200190815260200160002054905092915050565b610cba610daa565b73ffffffffffffffffffffffffffffffffffffffff16610cd861099a565b73ffffffffffffffffffffffffffffffffffffffff1614610d2e576040517f08c379a0000000000000000000000000000000000000000000000000000000008152600401610d2590611bf4565b60405180910390fd5b600073ffffffffffffffffffffffffffffffffffffffff168173ffffffffffffffffffffffffffffffffffffffff161415610d9e576040517f08c379a0000000000000000000000000000000000000000000000000000000008152600401610d9590611b34565b60405180910390fd5b610da7816115c1565b50565b600033905090565b600073ffffffffffffffffffffffffffffffffffffffff168373ffffffffffffffffffffffffffffffffffffffff161415610e22576040517f08c379a0000000000000000000000000000000000000000000000000000000008152600401610e1990611c54565b60405180910390fd5b600073ffffffffffffffffffffffffffffffffffffffff168273ffffffffffffffffffffffffffffffffffffffff161415610e92576040517f08c379a0000000000000000000000000000000000000000000000000000000008152600401610e8990611b54565b60405180910390fd5b80600160008573ffffffffffffffffffffffffffffffffffffffff1673ffffffffffffffffffffffffffffffffffffffff16815260200190815260200160002060008473ffffffffffffffffffffffffffffffffffffffff1673ffffffffffffffffffffffffffffffffffffffff168152602001908152602001600020819055508173ffffffffffffffffffffffffffffffffffffffff168373ffffffffffffffffffffffffffffffffffffffff167f8c5be1e5ebec7d5bd14f71427d1e84f3dd0314c0f7b2291e5b200ac8c7c3b92583604051610f709190611cb4565b60405180910390a3505050565b6000610f898484610c2b565b90507fffffffffffffffffffffffffffffffffffffffffffffffffffffffffffffffff81146110035781811015610ff5576040517f08c379a0000000000000000000000000000000000000000000000000000000008152600401610fec90611b94565b60405180910390fd5b6110028484848403610db2565b5b50505050565b600073ffffffffffffffffffffffffffffffffffffffff168373ffffffffffffffffffffffffffffffffffffffff161415611079576040517f08c379a000000000000000000000000000000000000000000000000000000000815260040161107090611c34565b60405180910390fd5b600073ffffffffffffffffffffffffffffffffffffffff168273ffffffffffffffffffffffffffffffffffffffff1614156110e9576040517f08c379a00000000000000000000000000000000000000000000000000000000081526004016110e090611af4565b60405180910390fd5b6110f4838383611687565b60008060008573ffffffffffffffffffffffffffffffffffffffff1673ffffffffffffffffffffffffffffffffffffffff1681526020019081526020016000205490508181101561117a576040517f08c379a000000000000000000000000000000000000000000000000000000000815260040161117190611bb4565b60405180910390fd5b8181036000808673ffffffffffffffffffffffffffffffffffffffff1673ffffffffffffffffffffffffffffffffffffffff16815260200190815260200160002081905550816000808573ffffffffffffffffffffffffffffffffffffffff1673ffffffffffffffffffffffffffffffffffffffff168152602001908152602001600020600082825461120d9190611d9e565b925050819055508273ffffffffffffffffffffffffffffffffffffffff168473ffffffffffffffffffffffffffffffffffffffff167fddf252ad1be2c89b69c2b068fc378daa952ba7f163c4a11628f55a4df523b3ef846040516112719190611cb4565b60405180910390a361128484848461168c565b50505050565b600073ffffffffffffffffffffffffffffffffffffffff168273ffffffffffffffffffffffffffffffffffffffff1614156112fa576040517f08c379a00000000000000000000000000000000000000000000000000000000081526004016112f190611c94565b60405180910390fd5b61130660008383611687565b80600260008282546113189190611d9e565b92505081905550806000808473ffffffffffffffffffffffffffffffffffffffff1673ffffffffffffffffffffffffffffffffffffffff168152602001908152602001600020600082825461136d9190611d9e565b925050819055508173ffffffffffffffffffffffffffffffffffffffff16600073ffffffffffffffffffffffffffffffffffffffff167fddf252ad1be2c89b69c2b068fc378daa952ba7f163c4a11628f55a4df523b3ef836040516113d29190611cb4565b60405180910390a36113e66000838361168c565b5050565b600073ffffffffffffffffffffffffffffffffffffffff168273ffffffffffffffffffffffffffffffffffffffff16141561145a576040517f08c379a000000000000000000000000000000000000000000000000000000000815260040161145190611c14565b60405180910390fd5b61146682600083611687565b60008060008473ffffffffffffffffffffffffffffffffffffffff1673ffffffffffffffffffffffffffffffffffffffff168152602001908152602001600020549050818110156114ec576040517f08c379a00000000000000000000000000000000000000000000000000000000081526004016114e390611b14565b60405180910390fd5b8181036000808573ffffffffffffffffffffffffffffffffffffffff1673ffffffffffffffffffffffffffffffffffffffff1681526020019081526020016000208190555081600260008282546115439190611ff0565b92505081905550600073ffffffffffffffffffffffffffffffffffffffff168373ffffffffffffffffffffffffffffffffffffffff167fddf252ad1be2c89b69c2b068fc378daa952ba7f163c4a11628f55a4df523b3ef846040516115a89190611cb4565b60405180910390a36115bc8360008461168c565b505050565b6000600560009054906101000a900473ffffffffffffffffffffffffffffffffffffffff16905081600560006101000a81548173ffffffffffffffffffffffffffffffffffffffff021916908373ffffffffffffffffffffffffffffffffffffffff1602179055508173ffffffffffffffffffffffffffffffffffffffff168173ffffffffffffffffffffffffffffffffffffffff167f8be0079c531659141344cd1fd0a4f28419497f9722a3daafe3b4186f6b6457e060405160405180910390a35050565b505050565b505050565b6000813590506116a0816125be565b92915050565b6000813590506116b5816125d5565b92915050565b6000602082840312156116cd57600080fd5b60006116db84828501611691565b91505092915050565b600080604083850312156116f757600080fd5b600061170585828601611691565b925050602061171685828601611691565b9150509250929050565b60008060006060848603121561173557600080fd5b600061174386828701611691565b935050602061175486828701611691565b9250506040611765868287016116a6565b9150509250925092565b6000806040838503121561178257600080fd5b600061179085828601611691565b92505060206117a1858286016116a6565b9150509250929050565b6000602082840312156117bd57600080fd5b60006117cb848285016116a6565b91505092915050565b6117dd81612024565b82525050565b6117ec81612036565b82525050565b60006117fd82611d82565b6118078185611d8d565b9350611817818560208601612079565b6118208161216b565b840191505092915050565b6000611838602383611d8d565b915061184382612189565b604082019050919050565b600061185b602283611d8d565b9150611866826121d8565b604082019050919050565b600061187e601883611d8d565b915061188982612227565b602082019050919050565b60006118a1602683611d8d565b91506118ac82612250565b604082019050919050565b60006118c4602283611d8d565b91506118cf8261229f565b604082019050919050565b60006118e7602083611d8d565b91506118f2826122ee565b602082019050919050565b600061190a601d83611d8d565b915061191582612317565b602082019050919050565b600061192d602683611d8d565b915061193882612340565b604082019050919050565b6000611950600d83611d8d565b915061195b8261238f565b602082019050919050565b6000611973602e83611d8d565b915061197e826123b8565b604082019050919050565b6000611996600883611d8d565b91506119a182612407565b602082019050919050565b60006119b9602083611d8d565b91506119c482612430565b602082019050919050565b60006119dc602183611d8d565b91506119e782612459565b604082019050919050565b60006119ff602583611d8d565b9150611a0a826124a8565b604082019050919050565b6000611a22602483611d8d565b9150611a2d826124f7565b604082019050919050565b6000611a45602583611d8d565b9150611a5082612546565b604082019050919050565b6000611a68601f83611d8d565b9150611a7382612595565b602082019050919050565b611a8781612062565b82525050565b611a968161206c565b82525050565b6000602082019050611ab160008301846117d4565b92915050565b6000602082019050611acc60008301846117e3565b92915050565b60006020820190508181036000830152611aec81846117f2565b905092915050565b60006020820190508181036000830152611b0d8161182b565b9050919050565b60006020820190508181036000830152611b2d8161184e565b9050919050565b60006020820190508181036000830152611b4d81611894565b9050919050565b60006020820190508181036000830152611b6d816118b7565b9050919050565b60006020820190508181036000830152611b8d816118da565b9050919050565b60006020820190508181036000830152611bad816118fd565b9050919050565b60006020820190508181036000830152611bcd81611920565b9050919050565b60006020820190508181036000830152611bed81611966565b9050919050565b60006020820190508181036000830152611c0d816119ac565b9050919050565b60006020820190508181036000830152611c2d816119cf565b9050919050565b60006020820190508181036000830152611c4d816119f2565b9050919050565b60006020820190508181036000830152611c6d81611a15565b9050919050565b60006020820190508181036000830152611c8d81611a38565b9050919050565b60006020820190508181036000830152611cad81611a5b565b9050919050565b6000602082019050611cc96000830184611a7e565b92915050565b6000604082019050611ce46000830184611a7e565b8181036020830152611cf581611871565b905092915050565b6000604082019050611d126000830184611a7e565b8181036020830152611d2381611943565b905092915050565b6000606082019050611d406000830185611a7e565b611d4d6020830184611a7e565b8181036040830152611d5e81611989565b90509392505050565b6000602082019050611d7c6000830184611a8d565b92915050565b600081519050919050565b600082825260208201905092915050565b6000611da982612062565b9150611db483612062565b9250827fffffffffffffffffffffffffffffffffffffffffffffffffffffffffffffffff03821115611de957611de86120de565b5b828201905092915050565b6000611dff82612062565b9150611e0a83612062565b925082611e1a57611e1961210d565b5b828204905092915050565b6000808291508390505b6001851115611e6f57808604811115611e4b57611e4a6120de565b5b6001851615611e5a5780820291505b8081029050611e688561217c565b9450611e2f565b94509492505050565b6000611e8382612062565b9150611e8e8361206c565b9250611ebb7fffffffffffffffffffffffffffffffffffffffffffffffffffffffffffffffff8484611ec3565b905092915050565b600082611ed35760019050611f8f565b81611ee15760009050611f8f565b8160018114611ef75760028114611f0157611f30565b6001915050611f8f565b60ff841115611f1357611f126120de565b5b8360020a915084821115611f2a57611f296120de565b5b50611f8f565b5060208310610133831016604e8410600b8410161715611f655782820a905083811115611f6057611f5f6120de565b5b611f8f565b611f728484846001611e25565b92509050818404811115611f8957611f886120de565b5b81810290505b9392505050565b6000611fa182612062565b9150611fac83612062565b9250817fffffffffffffffffffffffffffffffffffffffffffffffffffffffffffffffff0483118215151615611fe557611fe46120de565b5b828202905092915050565b6000611ffb82612062565b915061200683612062565b925082821015612019576120186120de565b5b828203905092915050565b600061202f82612042565b9050919050565b60008115159050919050565b600073ffffffffffffffffffffffffffffffffffffffff82169050919050565b6000819050919050565b600060ff82169050919050565b60005b8381101561209757808201518184015260208101905061207c565b838111156120a6576000848401525b50505050565b600060028204905060018216806120c457607f821691505b602082108114156120d8576120d761213c565b5b50919050565b7f4e487b7100000000000000000000000000000000000000000000000000000000600052601160045260246000fd5b7f4e487b7100000000000000000000000000000000000000000000000000000000600052601260045260246000fd5b7f4e487b7100000000000000000000000000000000000000000000000000000000600052602260045260246000fd5b6000601f19601f8301169050919050565b60008160011c9050919050565b7f45524332303a207472616e7366657220746f20746865207a65726f206164647260008201527f6573730000000000000000000000000000000000000000000000000000000000602082015250565b7f45524332303a206275726e20616d6f756e7420657863656564732062616c616e60008201527f6365000000000000000000000000000000000000000000000000000000000000602082015250565b7f4164646974696f6e616c20746f6b656e73206d696e7465640000000000000000600082015250565b7f4f776e61626c653a206e6577206f776e657220697320746865207a65726f206160008201527f6464726573730000000000000000000000000000000000000000000000000000602082015250565b7f45524332303a20617070726f766520746f20746865207a65726f20616464726560008201527f7373000000000000000000000000000000000000000000000000000000000000602082015250565b7f416d6f756e74206d7573742062652067726561746572207468616e207a65726f600082015250565b7f45524332303a20696e73756666696369656e7420616c6c6f77616e6365000000600082015250565b7f45524332303a207472616e7366657220616d6f756e742065786365656473206260008201527f616c616e63650000000000000000000000000000000000000000000000000000602082015250565b7f546f6b656e73206275726e656400000000000000000000000000000000000000600082015250565b7f596f75206e65656420746f207370656e64206d6f7265206174206c656173742060008201527f302e303030303030303120657468000000000000000000000000000000000000602082015250565b7f636f6d706c657465000000000000000000000000000000000000000000000000600082015250565b7f4f776e61626c653a2063616c6c6572206973206e6f7420746865206f776e6572600082015250565b7f45524332303a206275726e2066726f6d20746865207a65726f2061646472657360008201527f7300000000000000000000000000000000000000000000000000000000000000602082015250565b7f45524332303a207472616e736665722066726f6d20746865207a65726f20616460008201527f6472657373000000000000000000000000000000000000000000000000000000602082015250565b7f45524332303a20617070726f76652066726f6d20746865207a65726f2061646460008201527f7265737300000000000000000000000000000000000000000000000000000000602082015250565b7f45524332303a2064656372656173656420616c6c6f77616e63652062656c6f7760008201527f207a65726f000000000000000000000000000000000000000000000000000000602082015250565b7f45524332303a206d696e7420746f20746865207a65726f206164647265737300600082015250565b6125c781612024565b81146125d257600080fd5b50565b6125de81612062565b81146125e957600080fd5b5056fea264697066735822122094062e6361989abc4167195951cc535aca9d596c8d3f64d6703ad6a7997e711464736f6c63430008040033",
  "linkReferences": {},
  "deployedLinkReferences": {}
}